{
  blockHash: "0xe9c97437c52606fba7fdf6d52857e8a23fa27b0fd2dd730f9f0178e5e03c631f",
  blockNumber: 11388,
  from: "0xa1548dd61010a742cd66fb86324ab3e29355864a",
  gas: 57064,
  gasPrice: 500000000000,
  hash: "0xdd2d25e72dcb79c39e026fccce3db1f081adccbf05b1f257b05e92a3910d798d",
  input: "0xf8bc0585746a52880082cdf094100000000000000000000000000000000000000280b856f854838203eab842b840439d6fc6dec066d1666cb23fa323fdb98f4dc97f7d2c486fced988d4aa87d9a50f6e52e984ea3a4c8783f8a77110d351d321c841996f6145afe929aa99df9f6e818089888ac7230489e8000081eca062cc5495d0d4982912d08cb4cf84e1fa79fb8e53d878f4bb00481e7f6e1401c3a076669733f3d650a6aac29aa8d78356556577e81951fa34281ff668f198a262fb",
  nonce: 1,
  r: "0x13f85f163c05b1b96afdb2e699c6ea4760db8e77b85d34f58d93dc289a3a61f",
  s: "0x246bf730f0388c43297a321c8cfa59fb5604d83c60197244e120f8192dbc069d",
  to: "0x1000000000000000000000000000000000000002",
  transactionIndex: 0,
  v: "0xee",
  value: 0
}