{
  difficulty: 0,
  extraData: "0xd982070186706c61746f6e88676f312e31302e34856c696e75780000000000004a2b57ff08debef1f452713c1f619fb535eacee3b00890bb8e63034dc011125d48fc66ca953171c09f741e6d7529b5792b2b8db693e1a5df094df061a3b3284901",
  gasLimit: 2006984004,
  gasUsed: 88196,
  hash: "0xb65d6b75a0d74fcd28237b2d556fbea285c428b54023c2ac893f3942f3559524",
  logsBloom: "0x00000000000000000000000000000000000000000000000000000000000000000000000000000000000000000000000000000000000000000000000000000000000000000000000000400000000000000000000000000000000080000000000000000000000000000000000000000000000000000000000000000000000000000000000000000000000000000000002000000000000000000000200000000000080000000000000000000000000000000000000000000000000000000000000000000000000000000000000000000000000000000002000000000000000000000000000000000000000000000000000000000000000000000000000000000000",
  miner: "0x1000000000000000000000000000000000000003",
  nonce: "0x031d4d63c2358e65589d10994ed01db143030cce7e0d7880d75a2fe6d9d665e2a92122847b8029dee0101bdf2931472cd1c0fc76bc582057d9d5e68e4e611c8dac83dd6adfe8d260764bb2aedb73cd373c",
  number: 73,
  parentHash: "0x21f1bad618bfe4af4106327baa9789f3112d9c488a661e4d9f74667c1d5dee5e",
  receiptsRoot: "0x174611c60d0ee18f550e5e46dec3e65897914d697e582fa4b749de3503fe3a8e",
  size: 1274,
  stateRoot: "0xfbabbb2da73b3bee2b702308f29c7a7e84503ac213eb49f83c1ea6cc500f5c7f",
  timestamp: 1568194363417,
  totalDifficulty: 0,
  transactions: [{
    blockHash: "0xb65d6b75a0d74fcd28237b2d556fbea285c428b54023c2ac893f3942f3559524",
    blockNumber: 73,
    from: "0xa1548dd61010a742cd66fb86324ab3e29355864a",
    gas: 118160,
    gasPrice: 500000000000,
    hash: "0xf14f74386e6ef9027c48582d7faed3b50ab1ffdd047d6ba3afcf27791afb4e9b",
    input: "0xf901b0838203e881809594a1548dd61010a742cd66fb86324ab3e29355864ab842b840439d6fc6dec066d1666cb23fa323fdb98f4dc97f7d2c486fced988d4aa87d9a50f6e52e984ea3a4c8783f8a77110d351d321c841996f6145afe929aa99df9f6e8b8a6c6979667465737469648a896c6979662d746573749594687474703a2f2f7777772e62616964752e636f6d888764657461696c738c8b0422ca8b0a00a42500000083820701b843b8419625f47ca650c38ada0a1d30452669236d614a8b43c4a6baafb47acf9495e740089493ade600f8c5224803da77d96d69505f6cc89e41de0284bfef2325af912800b8c2b8c0613937653833356338663330346239316339656562623232653765383436313463313336643337333964643566633037613666613432353833383863656639313861383264313933376364666263373830366633346666303232653361373033326164313037303830643061616132326662656366646433623661326330386333336565373736613733636432656437336461316265303662336636653531636232373266303737326166643038383338313763316539633036346435373934",
    nonce: 0,
    r: "0x9ccd71f311f77710f446a2470000dd6b6cad91a674ddac102e63e8a6410b2f97",
    s: "0x3e7c2167e49d64fb34c9c76b941f995b7bbe78641b5769ca3ec16ea6ddc75df9",
    to: "0x1000000000000000000000000000000000000002",
    transactionIndex: 0,
    v: "0xed",
    value: 0
  }],
  transactionsRoot: "0x1c7e7e2d6d48122a6ceefa907507bd84091fd41f1532cca09f05170c4be21502"
}