{
  blockHash: "0x04bf71a0b77e6d630b87e49fdc0a6b6bcd08a4f3937426066573c2409db48992",
  blockNumber: 38101,
  from: "0xa1548dd61010a742cd66fb86324ab3e29355864a",
  gas: 57064,
  gasPrice: 500000000000,
  hash: "0x7916074e971c5dc716cea6c90ad5cdc42663f9c707ad41cf2a3707e54ef958ad",
  input: "0xf8db08870aa87bee5380008308349894100000000000000000000000000000000000000580b872f870838207d5b842b840439d6fc6dec066d1666cb23fa323fdb98f4dc97f7d2c486fced988d4aa87d9a50f6e52e984ea3a4c8783f8a77110d351d321c841996f6145afe929aa99df9f6e84833132330aa1a03235fbade28c02a7942868b0c3780632b6e68f0969e2c6fd108ea4ddf075680881eca0c34d780463dedaf3a9c214f354ea9fb4fc0e8a4cd16524d30076765f40b7100ba05e34d905842ad162ded30ef25ecd32df025ec141f695022d1ab7e5aacd769760",
  nonce: 1,
  r: "0x13f85f163c05b1b96afdb2e699c6ea4760db8e77b85d34f58d93dc289a3a61f",
  s: "0x246bf730f0388c43297a321c8cfa59fb5604d83c60197244e120f8192dbc069d",
  to: "0x1000000000000000000000000000000000000005",
  transactionIndex: 0,
  v: "0xee",
  value: 0
}