{
  blockHash: "0xfa9278910a8ad2787978609b6319c04478e612f231246358fe55cb1befc9043f",
  blockNumber: 59731,
  from: "0xa1548dd61010a742cd66fb86324ab3e29355864a",
  gas: 57064,
  gasPrice: 500000000000,
  hash: "0xd8c4c39975a6a4b54178f162b9b0b66faf4ce0452ec59fdc9b4b8dc8e6d360bf",
  input: "0xf8ba09870775f05a0740008307688494100000000000000000000000000000000000000580b851f84f838207d1b842b840439d6fc6dec066d1666cb23fa323fdb98f4dc97f7d2c486fced988d4aa87d9a50f6e52e984ea3a4c8783f8a77110d351d321c841996f6145afe929aa99df9f6e84833132310a0a81eca0b2c4a542f28d1a687930b78bdb29d39d25f8f87cfe2e7f1334f98da16dc1ce4fa04cab2e662c28ab3a3982d0d3e1b8dd0d7feb20f3c1ac9688474bdd3881448498",
  nonce: 1,
  r: "0x13f85f163c05b1b96afdb2e699c6ea4760db8e77b85d34f58d93dc289a3a61f",
  s: "0x246bf730f0388c43297a321c8cfa59fb5604d83c60197244e120f8192dbc069d",
  to: "0x1000000000000000000000000000000000000005",
  transactionIndex: 0,
  v: "0xee",
  value: 0
}