{
  blockHash: "0x1629ec8066a13122a9d431e7a391d13dcbd295e3c79acd581da02c0c617a9fee",
  blockNumber: 31763,
  from: "0xa1548dd61010a742cd66fb86324ab3e29355864a",
  gas: 57064,
  gasPrice: 500000000000,
  hash: "0x3235fbade28c02a7942868b0c3780632b6e68f0969e2c6fd108ea4ddf0756808",
  input: "0xf8b8078705543df729c00083056c2c94100000000000000000000000000000000000000580b84ff84d838207d0b842b840439d6fc6dec066d1666cb23fa323fdb98f4dc97f7d2c486fced988d4aa87d9a50f6e52e984ea3a4c8783f8a77110d351d321c841996f6145afe929aa99df9f6e848331323381eba067a7b39f07d3aa9adf2a37967ded76569e1b8e1457ae3b3a1c7f7a9d7277007aa03273a005ffd503712b9645b96b61f743b536cc3a088ce53ca8c2a2f4d6093c1f",
  nonce: 1,
  r: "0x13f85f163c05b1b96afdb2e699c6ea4760db8e77b85d34f58d93dc289a3a61f",
  s: "0x246bf730f0388c43297a321c8cfa59fb5604d83c60197244e120f8192dbc069d",
  to: "0x1000000000000000000000000000000000000005",
  transactionIndex: 0,
  v: "0xee",
  value: 0
}