{
  blockHash: "0x15332b8c9b5e8f1db98634c07d887f6a1b2956600cb024411b75031f2084e2a9",
  blockNumber: 117986,
  from: "0xa1548dd61010a742cd66fb86324ab3e29355864a",
  gas: 57064,
  gasPrice: 500000000000,
  hash: "0xa71d1d3cbaf4eb032ad031c4356979ceeddf9878a237da959ae2e18a8b1e464e",
  input: "0xf9011c1c85746a52880082ad5894100000000000000000000000000000000000000580b8b6f8b4838207d3b842b840439d6fc6dec066d1666cb23fa323fdb98f4dc97f7d2c486fced988d4aa87d9a50f6e52e984ea3a4c8783f8a77110d351d321c841996f6145afe929aa99df9f6ea1a03235fbade28c02a7942868b0c3780632b6e68f0969e2c6fd108ea4ddf07568080183820702b843b841bbe48f2160bd39e7e2f2a6f6790aa7634cc4a15b106d931bb531881e19e195ab35d627bb1dd4f578558d209fb4e361c5f03d855b92a086395951b690086c521e0181eba09eb606be08c6563814f6a85bbf5f48680ce6b5e73fa68f11a8a928e75c3f35dfa06302487b114c9075af31f2373744beb3f6b652a79a37f7b41404d11d2bb894f9",
  nonce: 1,
  r: "0x13f85f163c05b1b96afdb2e699c6ea4760db8e77b85d34f58d93dc289a3a61f",
  s: "0x246bf730f0388c43297a321c8cfa59fb5604d83c60197244e120f8192dbc069d",
  to: "0x1000000000000000000000000000000000000005",
  transactionIndex: 0,
  v: "0xee",
  value: 0
}