Type,From,To,Account Type,Amount,Gas Price,Gas Limit,Fee,Nonce,Create Time,Chain Id,Additional Info,Unique Code,TX data,Signed Time,Signed Data
staking,0xa1548dd61010a742cd66fb86324ab3e29355864a,0x1000000000000000000000000000000000000002,FREE_AMOUNT_TYPE,5000000000000000000000000,500000000000,86420,43210000000000000,0,2019-10-11T13:54:06.897,100,"{""chainId"":""201018"",""nodeAddress"":""http://127.0.0.1"",""nodeName"":""liyf-test"",""nodePort"":16784,""nodePublicKey"":""439d6fc6dec066d1666cb23fa323fdb98f4dc97f7d2c486fced988d4aa87d9a50f6e52e984ea3a4c8783f8a77110d351d321c841996f6145afe929aa99df9f6e"",""nodeRpcPort"":6780,""webSite"":""http://www.baidu.com""}",,f90194838203e8818095948780c918e59c060b6f6a61ebb89880791586ac66b842b840439d6fc6dec066d1666cb23fa323fdb98f4dc97f7d2c486fced988d4aa87d9a50f6e52e984ea3a4c8783f8a77110d351d321c841996f6145afe929aa99df9f6e8b8a6c6979667465737469648a896c6979662d746573749594687474703a2f2f7777772e62616964752e636f6d888764657461696c738c8b0422ca8b0a00a42500000083820702b843b841bbe48f2160bd39e7e2f2a6f6790aa7634cc4a15b106d931bb531881e19e195ab35d627bb1dd4f578558d209fb4e361c5f03d855b92a086395951b690086c521e01b862b860a97e835c8f304b91c9eebb22e7e84614c136d3739dd5fc07a6fa4258388cef918a82d1937cdfbc7806f34ff022e3a7032ad107080d0aaa22fbecfdd3b6a2c08c33ee776a73cd2ed73da1be06b3f6e51cb272f0772afd0883817c1e9c064d5794b842b8408fdd071c0da1f5405c0bb2f50de0341f2231b24991d7259afc150d775ff4ad35d898eebd08c5d8bb56b4d6e8a059e152f8af2a67d3938fda046d3208b0e6e65c,2019-10-11T14:01:35.158,0xf901ff8085746a5288008301519494100000000000000000000000000000000000000280b90197f90194838203e8818095948780c918e59c060b6f6a61ebb89880791586ac66b842b840439d6fc6dec066d1666cb23fa323fdb98f4dc97f7d2c486fced988d4aa87d9a50f6e52e984ea3a4c8783f8a77110d351d321c841996f6145afe929aa99df9f6e8b8a6c6979667465737469648a896c6979662d746573749594687474703a2f2f7777772e62616964752e636f6d888764657461696c738c8b0422ca8b0a00a42500000083820702b843b841bbe48f2160bd39e7e2f2a6f6790aa7634cc4a15b106d931bb531881e19e195ab35d627bb1dd4f578558d209fb4e361c5f03d855b92a086395951b690086c521e01b862b860a97e835c8f304b91c9eebb22e7e84614c136d3739dd5fc07a6fa4258388cef918a82d1937cdfbc7806f34ff022e3a7032ad107080d0aaa22fbecfdd3b6a2c08c33ee776a73cd2ed73da1be06b3f6e51cb272f0772afd0883817c1e9c064d5794b842b8408fdd071c0da1f5405c0bb2f50de0341f2231b24991d7259afc150d775ff4ad35d898eebd08c5d8bb56b4d6e8a059e152f8af2a67d3938fda046d3208b0e6e65c81eca015cb9c54bd2c0fae242288dfbe35376c417b98c27ccada59f9fad25eb1b0703ea0554b35aa83002992b404ea5b6e3a9cac1fb04cc2ba6005697af00aab0488e8f7
